{
  "_format": "hh-sol-artifact-1",
  "contractName": "OctoplaceMarket",
  "sourceName": "contracts/Octoplace.sol",
  "abi": [
    {
      "inputs": [
        {
          "internalType": "address",
          "name": "feeAddress_",
          "type": "address"
        },
        {
          "internalType": "address",
          "name": "WTFuelAddress",
          "type": "address"
        }
      ],
      "stateMutability": "nonpayable",
      "type": "constructor"
    },
    {
      "anonymous": false,
      "inputs": [
        {
          "indexed": true,
          "internalType": "address",
          "name": "nftContract",
          "type": "address"
        },
        {
          "indexed": true,
          "internalType": "address",
          "name": "creatorAddress",
          "type": "address"
        },
        {
          "indexed": false,
          "internalType": "uint256",
          "name": "BasisFeePoints",
          "type": "uint256"
        }
      ],
      "name": "CreatorFeeChanged",
      "type": "event"
    },
    {
      "anonymous": false,
      "inputs": [
        {
          "indexed": false,
          "internalType": "uint256",
          "name": "userPayout",
          "type": "uint256"
        },
        {
          "indexed": true,
          "internalType": "address",
          "name": "userAddress",
          "type": "address"
        },
        {
          "indexed": false,
          "internalType": "uint256",
          "name": "feePayout",
          "type": "uint256"
        },
        {
          "indexed": true,
          "internalType": "address",
          "name": "feeAddress",
          "type": "address"
        },
        {
          "indexed": false,
          "internalType": "uint256",
          "name": "creatorPayout",
          "type": "uint256"
        },
        {
          "indexed": true,
          "internalType": "address",
          "name": "creatorAddress",
          "type": "address"
        }
      ],
      "name": "FeeSplit",
      "type": "event"
    },
    {
      "anonymous": false,
      "inputs": [
        {
          "indexed": true,
          "internalType": "uint256",
          "name": "itemId",
          "type": "uint256"
        },
        {
          "indexed": true,
          "internalType": "address",
          "name": "nftContract",
          "type": "address"
        },
        {
          "indexed": false,
          "internalType": "uint256",
          "name": "tokenId",
          "type": "uint256"
        },
        {
          "indexed": true,
          "internalType": "address",
          "name": "seller",
          "type": "address"
        },
        {
          "indexed": false,
          "internalType": "address",
          "name": "owner",
          "type": "address"
        },
        {
          "indexed": false,
          "internalType": "string",
          "name": "category",
          "type": "string"
        },
        {
          "indexed": false,
          "internalType": "uint256",
          "name": "price",
          "type": "uint256"
        },
        {
          "indexed": false,
          "internalType": "bool",
          "name": "isSold",
          "type": "bool"
        }
      ],
      "name": "MarketItemCreated",
      "type": "event"
    },
    {
      "anonymous": false,
      "inputs": [
        {
          "indexed": true,
          "internalType": "uint256",
          "name": "itemId",
          "type": "uint256"
        },
        {
          "indexed": false,
          "internalType": "address",
          "name": "nftContract",
          "type": "address"
        },
        {
          "indexed": false,
          "internalType": "uint256",
          "name": "tokenId",
          "type": "uint256"
        },
        {
          "indexed": true,
          "internalType": "address",
          "name": "seller",
          "type": "address"
        },
        {
          "indexed": true,
          "internalType": "address",
          "name": "owner",
          "type": "address"
        },
        {
          "indexed": false,
          "internalType": "string",
          "name": "category",
          "type": "string"
        },
        {
          "indexed": false,
          "internalType": "uint256",
          "name": "price",
          "type": "uint256"
        },
        {
          "indexed": false,
          "internalType": "bool",
          "name": "isSold",
          "type": "bool"
        }
      ],
      "name": "MarketItemSale",
      "type": "event"
    },
    {
      "anonymous": false,
      "inputs": [
        {
          "indexed": true,
          "internalType": "uint256",
          "name": "itemId",
          "type": "uint256"
        },
        {
          "indexed": true,
          "internalType": "address",
          "name": "nftContract",
          "type": "address"
        },
        {
          "indexed": false,
          "internalType": "uint256",
          "name": "tokenId",
          "type": "uint256"
        },
        {
          "indexed": true,
          "internalType": "address",
          "name": "seller",
          "type": "address"
        },
        {
          "indexed": false,
          "internalType": "address",
          "name": "owner",
          "type": "address"
        },
        {
          "indexed": false,
          "internalType": "string",
          "name": "category",
          "type": "string"
        },
        {
          "indexed": false,
          "internalType": "uint256",
          "name": "price",
          "type": "uint256"
        },
        {
          "indexed": false,
          "internalType": "bool",
          "name": "isSold",
          "type": "bool"
        }
      ],
      "name": "MarketItemUpdated",
      "type": "event"
    },
    {
      "anonymous": false,
      "inputs": [
        {
          "indexed": true,
          "internalType": "uint256",
          "name": "itemId",
          "type": "uint256"
        },
        {
          "indexed": false,
          "internalType": "address",
          "name": "nftContract",
          "type": "address"
        },
        {
          "indexed": false,
          "internalType": "uint256",
          "name": "tokenId",
          "type": "uint256"
        },
        {
          "indexed": true,
          "internalType": "address",
          "name": "seller",
          "type": "address"
        },
        {
          "indexed": true,
          "internalType": "address",
          "name": "previousBidder",
          "type": "address"
        },
        {
          "indexed": false,
          "internalType": "uint256",
          "name": "price",
          "type": "uint256"
        }
      ],
      "name": "OfferCanceled",
      "type": "event"
    },
    {
      "anonymous": false,
      "inputs": [
        {
          "indexed": true,
          "internalType": "uint256",
          "name": "itemId",
          "type": "uint256"
        },
        {
          "indexed": false,
          "internalType": "address",
          "name": "nftContract",
          "type": "address"
        },
        {
          "indexed": false,
          "internalType": "uint256",
          "name": "tokenId",
          "type": "uint256"
        },
        {
          "indexed": true,
          "internalType": "address",
          "name": "seller",
          "type": "address"
        },
        {
          "indexed": false,
          "internalType": "uint256",
          "name": "highestOffer",
          "type": "uint256"
        },
        {
          "indexed": true,
          "internalType": "address",
          "name": "bidder",
          "type": "address"
        },
        {
          "indexed": false,
          "internalType": "string",
          "name": "category",
          "type": "string"
        },
        {
          "indexed": false,
          "internalType": "uint256",
          "name": "price",
          "type": "uint256"
        }
      ],
      "name": "OfferPlaced",
      "type": "event"
    },
    {
      "anonymous": false,
      "inputs": [
        {
          "indexed": true,
          "internalType": "uint256",
          "name": "BasisFeePoints",
          "type": "uint256"
        }
      ],
      "name": "PlatformFeeChanged",
      "type": "event"
    },
    {
      "anonymous": false,
      "inputs": [
        {
          "indexed": true,
          "internalType": "uint256",
          "name": "tier",
          "type": "uint256"
        },
        {
          "indexed": false,
          "internalType": "uint256",
          "name": "tokenBalance",
          "type": "uint256"
        },
        {
          "indexed": false,
          "internalType": "uint256",
          "name": "marketFeeMultiplierSale",
          "type": "uint256"
        },
        {
          "indexed": false,
          "internalType": "uint256",
          "name": "creatorFeeMultiplierSale",
          "type": "uint256"
        },
        {
          "indexed": false,
          "internalType": "uint256",
          "name": "marketFeeMultiplierOffer",
          "type": "uint256"
        },
        {
          "indexed": false,
          "internalType": "uint256",
          "name": "creatorFeeMultiplierOffer",
          "type": "uint256"
        }
      ],
      "name": "TierChanged",
      "type": "event"
    },
    {
      "stateMutability": "payable",
      "type": "fallback"
    },
    {
      "inputs": [],
      "name": "WTFuel",
      "outputs": [
        {
          "internalType": "address",
          "name": "",
          "type": "address"
        }
      ],
      "stateMutability": "view",
      "type": "function"
    },
    {
      "inputs": [
        {
          "internalType": "address",
          "name": "nftContract",
          "type": "address"
        },
        {
          "internalType": "uint256",
          "name": "itemId",
          "type": "uint256"
        },
        {
          "internalType": "uint256",
          "name": "price",
          "type": "uint256"
        }
      ],
      "name": "acceptMarketItemOfferTNT20",
      "outputs": [],
      "stateMutability": "payable",
      "type": "function"
    },
    {
      "inputs": [],
      "name": "admin",
      "outputs": [
        {
          "internalType": "address",
          "name": "",
          "type": "address"
        }
      ],
      "stateMutability": "view",
      "type": "function"
    },
    {
      "inputs": [
        {
          "internalType": "uint256",
          "name": "itemId",
          "type": "uint256"
        }
      ],
      "name": "cancelMarketItemOfferTNT20",
      "outputs": [],
      "stateMutability": "nonpayable",
      "type": "function"
    },
    {
      "inputs": [
        {
          "internalType": "address",
          "name": "nftContract",
          "type": "address"
        },
        {
          "internalType": "uint256",
          "name": "itemId",
          "type": "uint256"
        }
      ],
      "name": "createMarketCancel",
      "outputs": [],
      "stateMutability": "nonpayable",
      "type": "function"
    },
    {
      "inputs": [
        {
          "internalType": "address",
          "name": "nftContract",
          "type": "address"
        },
        {
          "internalType": "uint256",
          "name": "itemId",
          "type": "uint256"
        }
      ],
      "name": "createMarketCancelAdmin",
      "outputs": [],
      "stateMutability": "nonpayable",
      "type": "function"
    },
    {
      "inputs": [
        {
          "internalType": "address",
          "name": "nftContract",
          "type": "address"
        },
        {
          "internalType": "uint256",
          "name": "tokenId",
          "type": "uint256"
        },
        {
          "internalType": "uint256",
          "name": "price",
          "type": "uint256"
        },
        {
          "internalType": "string",
          "name": "category",
          "type": "string"
        }
      ],
      "name": "createMarketItem",
      "outputs": [],
      "stateMutability": "nonpayable",
      "type": "function"
    },
    {
      "inputs": [
        {
          "internalType": "address",
          "name": "nftContract",
          "type": "address"
        },
        {
          "internalType": "uint256",
          "name": "itemId",
          "type": "uint256"
        },
        {
          "internalType": "uint256",
          "name": "offerPrice",
          "type": "uint256"
        }
      ],
      "name": "createMarketItemOfferTNT20",
      "outputs": [],
      "stateMutability": "nonpayable",
      "type": "function"
    },
    {
      "inputs": [
        {
          "internalType": "address",
          "name": "nftContract",
          "type": "address"
        },
        {
          "internalType": "uint256",
          "name": "itemId",
          "type": "uint256"
        }
      ],
      "name": "createMarketSale",
      "outputs": [],
      "stateMutability": "payable",
      "type": "function"
    },
    {
      "inputs": [],
      "name": "feeAddress",
      "outputs": [
        {
          "internalType": "address",
          "name": "",
          "type": "address"
        }
      ],
      "stateMutability": "view",
      "type": "function"
    },
    {
      "inputs": [],
      "name": "flipListingState",
      "outputs": [],
      "stateMutability": "nonpayable",
      "type": "function"
    },
    {
      "inputs": [],
      "name": "flipTiersState",
      "outputs": [],
      "stateMutability": "nonpayable",
      "type": "function"
    },
    {
      "inputs": [
        {
          "internalType": "uint256",
          "name": "id",
          "type": "uint256"
        }
      ],
      "name": "getByMarketId",
      "outputs": [
        {
          "components": [
            {
              "internalType": "uint256",
              "name": "itemId",
              "type": "uint256"
            },
            {
              "internalType": "address",
              "name": "nftContract",
              "type": "address"
            },
            {
              "internalType": "uint256",
              "name": "tokenId",
              "type": "uint256"
            },
            {
              "internalType": "address payable",
              "name": "seller",
              "type": "address"
            },
            {
              "internalType": "address payable",
              "name": "owner",
              "type": "address"
            },
            {
              "internalType": "uint256",
              "name": "highestOffer",
              "type": "uint256"
            },
            {
              "internalType": "address",
              "name": "bidder",
              "type": "address"
            },
            {
              "internalType": "string",
              "name": "category",
              "type": "string"
            },
            {
              "internalType": "uint256",
              "name": "price",
              "type": "uint256"
            },
            {
              "internalType": "bool",
              "name": "isSold",
              "type": "bool"
            }
          ],
          "internalType": "struct OctoplaceMarket.MarketItem",
          "name": "",
          "type": "tuple"
        }
      ],
      "stateMutability": "view",
      "type": "function"
    },
    {
      "inputs": [
        {
          "internalType": "address",
          "name": "contract_",
          "type": "address"
        }
      ],
      "name": "getContractOwner",
      "outputs": [
        {
          "internalType": "address",
          "name": "",
          "type": "address"
        }
      ],
      "stateMutability": "view",
      "type": "function"
    },
    {
      "inputs": [
        {
          "internalType": "address",
          "name": "NFTAddress",
          "type": "address"
        }
      ],
      "name": "getCreatorFeeBasisPoints",
      "outputs": [
        {
          "components": [
            {
              "internalType": "address",
              "name": "creator",
              "type": "address"
            },
            {
              "internalType": "uint256",
              "name": "feeBasisPoints",
              "type": "uint256"
            }
          ],
          "internalType": "struct OctoplaceMarket.Creator",
          "name": "",
          "type": "tuple"
        }
      ],
      "stateMutability": "view",
      "type": "function"
    },
    {
      "inputs": [],
      "name": "getLastMarketId",
      "outputs": [
        {
          "internalType": "uint256",
          "name": "",
          "type": "uint256"
        }
      ],
      "stateMutability": "view",
      "type": "function"
    },
    {
      "inputs": [],
      "name": "getSalesFee",
      "outputs": [
        {
          "internalType": "uint256",
          "name": "",
          "type": "uint256"
        }
      ],
      "stateMutability": "view",
      "type": "function"
    },
    {
      "inputs": [
        {
          "internalType": "uint256",
          "name": "tier",
          "type": "uint256"
        }
      ],
      "name": "getTier",
      "outputs": [
        {
          "components": [
            {
              "internalType": "uint256",
              "name": "tokenBalance",
              "type": "uint256"
            },
            {
              "internalType": "uint256",
              "name": "marketFeeMultiplierSale",
              "type": "uint256"
            },
            {
              "internalType": "uint256",
              "name": "creatorFeeMultiplierSale",
              "type": "uint256"
            },
            {
              "internalType": "uint256",
              "name": "marketFeeMultiplierOffer",
              "type": "uint256"
            },
            {
              "internalType": "uint256",
              "name": "creatorFeeMultiplierOffer",
              "type": "uint256"
            }
          ],
          "internalType": "struct OctoplaceMarket.Tier",
          "name": "",
          "type": "tuple"
        }
      ],
      "stateMutability": "view",
      "type": "function"
    },
    {
      "inputs": [],
      "name": "listingIsActive",
      "outputs": [
        {
          "internalType": "bool",
          "name": "",
          "type": "bool"
        }
      ],
      "stateMutability": "view",
      "type": "function"
    },
    {
      "inputs": [],
      "name": "openThetaToken",
      "outputs": [
        {
          "internalType": "address",
          "name": "",
          "type": "address"
        }
      ],
      "stateMutability": "view",
      "type": "function"
    },
    {
      "inputs": [
        {
          "internalType": "uint256",
          "name": "amount",
          "type": "uint256"
        }
      ],
      "name": "retrieveMoney",
      "outputs": [],
      "stateMutability": "nonpayable",
      "type": "function"
    },
    {
      "inputs": [
        {
          "internalType": "uint256",
          "name": "",
          "type": "uint256"
        }
      ],
      "name": "sellerTiers",
      "outputs": [
        {
          "internalType": "uint256",
          "name": "tokenBalance",
          "type": "uint256"
        },
        {
          "internalType": "uint256",
          "name": "marketFeeMultiplierSale",
          "type": "uint256"
        },
        {
          "internalType": "uint256",
          "name": "creatorFeeMultiplierSale",
          "type": "uint256"
        },
        {
          "internalType": "uint256",
          "name": "marketFeeMultiplierOffer",
          "type": "uint256"
        },
        {
          "internalType": "uint256",
          "name": "creatorFeeMultiplierOffer",
          "type": "uint256"
        }
      ],
      "stateMutability": "view",
      "type": "function"
    },
    {
      "inputs": [
        {
          "internalType": "address",
          "name": "admin_",
          "type": "address"
        }
      ],
      "name": "setAdmin",
      "outputs": [],
      "stateMutability": "nonpayable",
      "type": "function"
    },
    {
      "inputs": [
        {
          "internalType": "uint256",
          "name": "feeBasisPoints",
          "type": "uint256"
        },
        {
          "internalType": "address",
          "name": "creatorAddress",
          "type": "address"
        },
        {
          "internalType": "address",
          "name": "NFTAddress",
          "type": "address"
        }
      ],
      "name": "setCreatorFeeBasisPoints",
      "outputs": [],
      "stateMutability": "nonpayable",
      "type": "function"
    },
    {
      "inputs": [
        {
          "internalType": "uint256",
          "name": "feeBasisPoints",
          "type": "uint256"
        },
        {
          "internalType": "address",
          "name": "creatorAddress",
          "type": "address"
        },
        {
          "internalType": "address",
          "name": "NFTAddress",
          "type": "address"
        }
      ],
      "name": "setCreatorFeeBasisPointsByCreator",
      "outputs": [],
      "stateMutability": "nonpayable",
      "type": "function"
    },
    {
      "inputs": [
        {
          "internalType": "address",
          "name": "feeAddress_",
          "type": "address"
        }
      ],
      "name": "setFeeAddress",
      "outputs": [],
      "stateMutability": "nonpayable",
      "type": "function"
    },
    {
      "inputs": [
        {
          "internalType": "address",
          "name": "OTToken",
          "type": "address"
        }
      ],
      "name": "setOpenThetaTokenAddress",
      "outputs": [],
      "stateMutability": "nonpayable",
      "type": "function"
    },
    {
      "inputs": [
        {
          "internalType": "uint256",
          "name": "feeBasisPoints",
          "type": "uint256"
        }
      ],
      "name": "setSalesFeeBasisPoints",
      "outputs": [],
      "stateMutability": "nonpayable",
      "type": "function"
    },
    {
      "inputs": [
        {
          "internalType": "address",
          "name": "superAdmin_",
          "type": "address"
        }
      ],
      "name": "setSuperAdmin",
      "outputs": [],
      "stateMutability": "nonpayable",
      "type": "function"
    },
    {
      "inputs": [
        {
          "internalType": "uint256",
          "name": "tier",
          "type": "uint256"
        },
        {
          "internalType": "uint256",
          "name": "tokenBalance",
          "type": "uint256"
        },
        {
          "internalType": "uint256",
          "name": "marketFeeMultiplierSale",
          "type": "uint256"
        },
        {
          "internalType": "uint256",
          "name": "creatorFeeMultiplierSale",
          "type": "uint256"
        },
        {
          "internalType": "uint256",
          "name": "marketFeeMultiplierOffer",
          "type": "uint256"
        },
        {
          "internalType": "uint256",
          "name": "creatorFeeMultiplierOffer",
          "type": "uint256"
        }
      ],
      "name": "setTier",
      "outputs": [],
      "stateMutability": "nonpayable",
      "type": "function"
    },
    {
      "inputs": [
        {
          "internalType": "address",
          "name": "wTFuel",
          "type": "address"
        }
      ],
      "name": "setWTFuelAddress",
      "outputs": [],
      "stateMutability": "nonpayable",
      "type": "function"
    },
    {
      "inputs": [],
      "name": "superAdmin",
      "outputs": [
        {
          "internalType": "address",
          "name": "",
          "type": "address"
        }
      ],
      "stateMutability": "view",
      "type": "function"
    },
    {
      "inputs": [],
      "name": "tiersAreActive",
      "outputs": [
        {
          "internalType": "bool",
          "name": "",
          "type": "bool"
        }
      ],
      "stateMutability": "view",
      "type": "function"
    },
    {
      "inputs": [
        {
          "internalType": "address",
          "name": "nftContract",
          "type": "address"
        },
        {
          "internalType": "uint256",
          "name": "tokenId",
          "type": "uint256"
        },
        {
          "internalType": "uint256",
          "name": "price",
          "type": "uint256"
        },
        {
          "internalType": "uint256",
          "name": "itemId",
          "type": "uint256"
        }
      ],
      "name": "updateMarketItem",
      "outputs": [],
      "stateMutability": "nonpayable",
      "type": "function"
    },
    {
      "stateMutability": "payable",
      "type": "receive"
    }
  ],
  "bytecode": "0x60806040526101906007556008805461ffff191660011790553480156200002557600080fd5b506040516200390c3803806200390c8339810160408190526200004891620000ba565b6001600055600380546001600160a01b03199081163317909155600580546001600160a01b0394851692169190911790556008805491909216620100000262010000600160b01b0319909116179055620000f2565b80516001600160a01b0381168114620000b557600080fd5b919050565b60008060408385031215620000ce57600080fd5b620000d9836200009d565b9150620000e9602084016200009d565b90509250929050565b61380a80620001026000396000f3fe6080604052600436106101e55760003560e01c8063704b6c0211610101578063bd943d951161009a578063d928307c1161006c578063d928307c14610683578063eab46c19146106a3578063ee45a711146106b6578063f851a440146106d6578063fdf98dc3146106f657005b8063bd943d95146105f7578063c23b139e14610617578063c522c13d1461062a578063d59d99501461064a57005b8063a2a23d06116100d3578063a2a23d0614610582578063a5e0f74d146105a8578063aa39aaf8146105bd578063b3451eac146105dd57005b8063704b6c02146104a5578063731aa6fa146104c55780638705fcd41461054d578063916812141461056d57005b806330317f071161017e5780634f062c5a116101505780634f062c5a146103bf5780635e8787111461042157806368e6c628146104415780636c3ba611146104615780636e7443da1461047657005b806330317f071461033257806331aff94d1461035f5780633f1a79401461037f578063412753581461039f57005b806326bcae08116101b757806326bcae08146102b3578063274ebb13146102d357806329575f6a146102f35780632f5ab9721461031357005b80630616786d146101ee5780630c95c18a1461020e5780630cda6b211461025b578063157000521461029357005b366101ec57005b005b3480156101fa57600080fd5b506101ec610209366004612f0d565b610716565b34801561021a57600080fd5b5061022e610229366004612f42565b6109fe565b604080519586526020860194909452928401919091526060830152608082015260a0015b60405180910390f35b34801561026757600080fd5b5060095461027b906001600160a01b031681565b6040516001600160a01b039091168152602001610252565b34801561029f57600080fd5b506101ec6102ae366004612f5b565b610a33565b3480156102bf57600080fd5b506101ec6102ce366004612f5b565b610a7f565b3480156102df57600080fd5b506101ec6102ee366004612f42565b610ad3565b3480156102ff57600080fd5b5060035461027b906001600160a01b031681565b34801561031f57600080fd5b506007545b604051908152602001610252565b34801561033e57600080fd5b5061035261034d366004612f42565b610ba1565b6040516102529190612fc8565b34801561036b57600080fd5b506101ec61037a36600461308e565b610d5e565b34801561038b57600080fd5b506101ec61039a366004612f5b565b610e2c565b3480156103ab57600080fd5b5060055461027b906001600160a01b031681565b3480156103cb57600080fd5b506103df6103da366004612f42565b610e78565b6040516102529190600060a082019050825182526020830151602083015260408301516040830152606083015160608301526080830151608083015292915050565b34801561042d57600080fd5b506101ec61043c3660046130d0565b610f4a565b34801561044d57600080fd5b506101ec61045c36600461310b565b611187565b34801561046d57600080fd5b506101ec61133b565b34801561048257600080fd5b5060085461049590610100900460ff1681565b6040519015158152602001610252565b3480156104b157600080fd5b506101ec6104c0366004612f5b565b611379565b3480156104d157600080fd5b506105296104e0366004612f5b565b604080518082018252600080825260209182018190526001600160a01b039384168152601a82528290208251808401909352805490931682526001909201549181019190915290565b6040805182516001600160a01b031681526020928301519281019290925201610252565b34801561055957600080fd5b506101ec610568366004612f5b565b6113c5565b34801561057957600080fd5b50610324611411565b34801561058e57600080fd5b5060085461027b906201000090046001600160a01b031681565b3480156105b457600080fd5b506101ec611421565b3480156105c957600080fd5b506101ec6105d8366004613137565b611468565b3480156105e957600080fd5b506008546104959060ff1681565b34801561060357600080fd5b506101ec61061236600461310b565b611634565b6101ec61062536600461310b565b611675565b34801561063657600080fd5b506101ec610645366004612f42565b611e50565b34801561065657600080fd5b5061027b610665366004612f5b565b6001600160a01b039081166000908152600660205260409020541690565b34801561068f57600080fd5b506101ec61069e366004612f42565b611ecf565b6101ec6106b1366004612f0d565b61201b565b3480156106c257600080fd5b506101ec6106d136600461317a565b612845565b3480156106e257600080fd5b5060045461027b906001600160a01b031681565b34801561070257600080fd5b506101ec61071136600461308e565b612c4e565b61071e612ccd565b60008281526019602052604090206009015460ff16156107595760405162461bcd60e51b815260040161075090613210565b60405180910390fd5b6000828152601960205260409020600101546001600160a01b038481169116146107955760405162461bcd60e51b81526004016107509061323e565b600854604051636eb1769f60e11b81523360048201523060248201526000916201000090046001600160a01b03169063dd62ed3e90604401602060405180830381865afa1580156107ea573d6000803e3d6000fd5b505050506040513d601f19601f8201168201806040525081019061080e9190613275565b600084815260196020526040902060050154909150828210156108865760405162461bcd60e51b815260206004820152602a60248201527f416c6c6f77616e6365206f6620544e54323020746f6b656e206973206e6f74206044820152690c4d2ce40cadcdeeaced60b31b6064820152608401610750565b60085460008581526019602052604090819020600601549051636eb1769f60e11b81526001600160a01b03918216600482015230602482015283926201000090049091169063dd62ed3e90604401602060405180830381865afa1580156108f1573d6000803e3d6000fd5b505050506040513d601f19601f820116820180604052508101906109159190613275565b1061095d5782811061095d5760405162461bcd60e51b81526020600482015260116024820152702737ba103434b3b432b9ba1037b33332b960791b6044820152606401610750565b60008481526019602052604090819020600581018590556006810180546001600160a01b03191633908117909155600382015460028301546008840154945192946001600160a01b03929092169389937fccad252f5f2e61c98818739c4998705acd240f30a0ab616951a1b1a9106b3bae936109e5938d9390928c9260079092019190613345565b60405180910390a450506109f96001600055565b505050565b600a8160038110610a0e57600080fd5b6005020180546001820154600283015460038401546004909401549294509092909185565b6003546001600160a01b03163314610a5d5760405162461bcd60e51b815260040161075090613384565b600380546001600160a01b0319166001600160a01b0392909216919091179055565b6003546001600160a01b03163314610aa95760405162461bcd60e51b815260040161075090613384565b600880546001600160a01b03909216620100000262010000600160b01b0319909216919091179055565b6003546001600160a01b03163314610afd5760405162461bcd60e51b815260040161075090613384565b47811115610b635760405162461bcd60e51b815260206004820152602d60248201527f596f752063616e206e6f74207769746864726177206d6f7265206d6f6e65792060448201526c7468616e20746865726520697360981b6064820152608401610750565b6005546040516001600160a01b039091169082156108fc029083906000818181858888f19350505050158015610b9d573d6000803e3d6000fd5b5050565b604080516101408101825260008082526020820181905291810182905260608082018390526080820183905260a0820183905260c0820183905260e08201526101008101829052610120810191909152600154821115610c365760405162461bcd60e51b815260206004820152601060248201526f1a5908191bd95cdb89dd08195e1a5cdd60821b6044820152606401610750565b6000828152601960209081526040918290208251610140810184528154815260018201546001600160a01b0390811693820193909352600282015493810193909352600381015482166060840152600481015482166080840152600581015460a0840152600681015490911660c083015260078101805460e084019190610cbc9061328e565b80601f0160208091040260200160405190810160405280929190818152602001828054610ce89061328e565b8015610d355780601f10610d0a57610100808354040283529160200191610d35565b820191906000526020600020905b815481529060010190602001808311610d1857829003601f168201915b50505091835250506008820154602082015260099091015460ff16151560409091015292915050565b6004546001600160a01b0316331480610d8157506003546001600160a01b031633145b610d9d5760405162461bcd60e51b8152600401610750906133d0565b6103e8831115610dbf5760405162461bcd60e51b815260040161075090613416565b6001600160a01b038181166000818152601a60209081526040918290206001810188905580546001600160a01b031916948716948517905590518681527f14029b2a500a1561bbe08c538f86c05a18ca270a8ec4786185fd69dde6230120910160405180910390a3505050565b6003546001600160a01b03163314610e565760405162461bcd60e51b815260040161075090613384565b600980546001600160a01b0319166001600160a01b0392909216919091179055565b610eaa6040518060a0016040528060008152602001600081526020016000815260200160008152602001600081525090565b60038210610eef5760405162461bcd60e51b815260206004820152601260248201527154696572206e756d62657220746f2062696760701b6044820152606401610750565b600a8260038110610f0257610f02613457565b600502016040518060a0016040529081600082015481526020016001820154815260200160028201548152602001600382015481526020016004820154815250509050919050565b610f52612ccd565b60085460ff161515600114610f9c5760405162461bcd60e51b815260206004820152601060248201526f131a5cdd1a5b99c8191a5cd8589b195960821b6044820152606401610750565b60008211610fe45760405162461bcd60e51b81526020600482015260156024820152744e6f206974656d20666f722066726565206865726560581b6044820152606401610750565b60008181526019602052604090206009015460ff16156110165760405162461bcd60e51b815260040161075090613210565b6000818152601960205260409020600101546001600160a01b038581169116146110525760405162461bcd60e51b81526004016107509061323e565b60008181526019602052604090206002015483146110a85760405162461bcd60e51b8152602060048201526013602482015272139bdd0818dbdc9c9958dd081d1bdad95b9259606a1b6044820152606401610750565b6000818152601960205260409020600301546001600160a01b031633146111115760405162461bcd60e51b815260206004820152601b60248201527f4f6e6c792073656c6c65722063616e20757064617465204974656d00000000006044820152606401610750565b60008181526019602052604080822060088101859055905133926001600160a01b0388169285927f74afb23ef53a4083f1bdad10c6c15d0aaf884c99cff7c59febfa6659a543cc619261116f928a926007909101908a90839061346d565b60405180910390a46111816001600055565b50505050565b61118f612ccd565b6004546001600160a01b03163314806111b257506003546001600160a01b031633145b6111ce5760405162461bcd60e51b8152600401610750906133d0565b60008181526019602052604090206009015460ff16156112005760405162461bcd60e51b815260040161075090613210565b6000818152601960205260408082206002810154600882019390935560098101805460ff191660011790556003810154600491820180546001600160a01b0319166001600160a01b0392831690811790915592516323b872dd60e01b8152908616926323b872dd92611277923092918791016134b0565b600060405180830381600087803b15801561129157600080fd5b505af11580156112a5573d6000803e3d6000fd5b505050506112b7600280546001019055565b60008281526019602052604080822060048101546003820154600180840154600285015495516001600160a01b0394851697938516968a967f895a96f6ac8d73df2b06b1075893880803453f7110c94f09757b5e9864cfee67966113289694169491936007909101929091906134d4565b60405180910390a450610b9d6001600055565b6003546001600160a01b031633146113655760405162461bcd60e51b815260040161075090613384565b6008805460ff19811660ff90911615179055565b6003546001600160a01b031633146113a35760405162461bcd60e51b815260040161075090613384565b600480546001600160a01b0319166001600160a01b0392909216919091179055565b6003546001600160a01b031633146113ef5760405162461bcd60e51b815260040161075090613384565b600580546001600160a01b0319166001600160a01b0392909216919091179055565b600061141c60015490565b905090565b6003546001600160a01b0316331461144b5760405162461bcd60e51b815260040161075090613384565b6008805461ff001981166101009182900460ff1615909102179055565b6003546001600160a01b031633146114925760405162461bcd60e51b815260040161075090613384565b600386106114d95760405162461bcd60e51b815260206004820152601460248201527354696572206973206e6f7420696e2072616e676560601b6044820152606401610750565b606484111580156114eb575060648311155b80156114f8575060648211155b8015611505575060648111155b6115495760405162461bcd60e51b8152602060048201526015602482015274466565206d756c7469706c69657220746f2062696760581b6044820152606401610750565b84600a876003811061155d5761155d613457565b600502015583600a876003811061157657611576613457565b600502016001018190555082600a876003811061159557611595613457565b600502016002018190555081600a87600381106115b4576115b4613457565b600502016003018190555080600a87600381106115d3576115d3613457565b60050201600401556040805186815260208101869052908101849052606081018390526080810182905286907fcd41f30d6dfb47c4b2205828bd23ee7c18b5b9bb797282d95b4ed0a523fc35139060a00160405180910390a2505050505050565b61163c612ccd565b6000818152601960205260409020600301546001600160a01b031633146111ce5760405162461bcd60e51b8152600401610750906134fb565b61167d612ccd565b60008181526019602052604090206009015460ff16156116af5760405162461bcd60e51b815260040161075090613210565b6000818152601960205260409020600881015460028201546001909201549091906001600160a01b0390811690851681146116fc5760405162461bcd60e51b81526004016107509061323e565b8234146117655760405162461bcd60e51b815260206004820152603160248201527f506c65617365206d616b652074686520707269636520746f2062652073616d65604482015270206173206c697374696e6720707269636560781b6064820152608401610750565b600083116117b55760405162461bcd60e51b815260206004820152601860248201527f4974656d20697320616c72656164792063616e63656c656400000000000000006044820152606401610750565b6000848152601960205260408120600301546001600160a01b031690806117dc8382612d26565b6001600160a01b038087166000908152601a602052604081205493955091935090911680156118ee576001600160a01b0386166000908152601a6020526040902060010154606490849061183261271034613554565b61183c9190613576565b6118469190613576565b6118509190613554565b91506000816001600160a01b03168360405160006040518083038185875af1925050503d806000811461189f576040519150601f19603f3d011682016040523d82523d6000602084013e6118a4565b606091505b50509050806118e85760405162461bcd60e51b815260206004820152601060248201526f2a3930b739b332b9103330b4b632b21760811b6044820152606401610750565b50611a13565b6118f786612e7d565b15611a135760405163152a902d60e11b81526004810188905234602482015260009081906001600160a01b03891690632a55205a906044016040805180830381865afa15801561194b573d6000803e3d6000fd5b505050506040513d601f19601f8201168201806040525081019061196f9190613593565b915091506000826001600160a01b03168260405160006040518083038185875af1925050503d80600081146119c0576040519150601f19603f3d011682016040523d82523d6000602084013e6119c5565b606091505b5050905081945082935080611a0f5760405162461bcd60e51b815260206004820152601060248201526f2a3930b739b332b9103330b4b632b21760811b6044820152606401610750565b5050505b600089815260196020526040902060098101805460ff1916600117905560040180546001600160a01b03191633179055611a51600280546001019055565b6040516323b872dd60e01b81526001600160a01b038b16906323b872dd90611a8190309033908c906004016134b0565b600060405180830381600087803b158015611a9b57600080fd5b505af1158015611aaf573d6000803e3d6000fd5b50505050600060648560075461271034611ac99190613554565b611ad39190613576565b611add9190613576565b611ae79190613554565b9050600081611af685346135c1565b611b0091906135c1565b90506000876001600160a01b03168260405160006040518083038185875af1925050503d8060008114611b4f576040519150601f19603f3d011682016040523d82523d6000602084013e611b54565b606091505b5050905080611ba55760405162461bcd60e51b815260206004820152601a60248201527f5472616e7366657220746f2073656c6c6572206661696c65642e0000000000006044820152606401610750565b6005546040516000916001600160a01b03169085908381818185875af1925050503d8060008114611bf2576040519150601f19603f3d011682016040523d82523d6000602084013e611bf7565b606091505b5050905080611c3f5760405162461bcd60e51b81526020600482015260146024820152732a3930b739b332b9102332b2903330b4b632b21760611b6044820152606401610750565b60008d81526019602090815260408083208151610140810183528154815260018201546001600160a01b0390811694820194909452600282015492810192909252600381015483166060830152600481015483166080830152600581015460a0830152600681015490921660c082015260078201805491929160e084019190611cc79061328e565b80601f0160208091040260200160405190810160405280929190818152602001828054611cf39061328e565b8015611d405780601f10611d1557610100808354040283529160200191611d40565b820191906000526020600020905b815481529060010190602001808311611d2357829003601f168201915b50505050508152602001600882015481526020016009820160009054906101000a900460ff161515151581525050905080608001516001600160a01b031681606001516001600160a01b031682600001517f895a96f6ac8d73df2b06b1075893880803453f7110c94f09757b5e9864cfee67846020015185604001518660e001518761010001516001604051611dda9594939291906135d4565b60405180910390a460055460408051868152602081018890529081018990526001600160a01b0388811692811691908d16907f7e06111c2f996dd70140b09a1b769e48e2e8fffbd0179a6e24552f65d25b8b169060600160405180910390a450505050505050505050505050610b9d6001600055565b6003546001600160a01b03163314611e7a5760405162461bcd60e51b815260040161075090613384565b6103e8811115611e9c5760405162461bcd60e51b815260040161075090613416565b600781905560405181907f72b05fd7e6e407beabebd17ae121166880efdc19a2a9b08063eafc0c001e470a90600090a250565b611ed7612ccd565b6000818152601960205260409020600601546001600160a01b03163314611f4c5760405162461bcd60e51b815260206004820152602360248201527f596f75206861766520746f206265207468652062696464657220746f2063616e60448201526218d95b60ea1b6064820152608401610750565b60008181526019602052604090206009015460ff1615611f7e5760405162461bcd60e51b815260040161075090613210565b600081815260196020908152604080832060058101939093556006830180546001600160a01b031916905560038301546001840154600285015460089095015483516001600160a01b03928316815294850195909552918301939093523392169083907f52ad52b35de7b3d202be1ec25c84c971aaa042ff7e3628b06956cc5c2ed6da2b9060600160405180910390a46120186001600055565b50565b612023612ccd565b6000828152601960205260409020600301546001600160a01b0316331461205c5760405162461bcd60e51b8152600401610750906134fb565b60008281526019602052604090206009015460ff161561208e5760405162461bcd60e51b815260040161075090613210565b600082815260196020526040902060050154818110156120f05760405162461bcd60e51b815260206004820152601c60248201527f6f6666657220697320736d616c6c6572206173206578706563746564000000006044820152606401610750565b6000838152601960205260409081902060068101546005909101546008549251636eb1769f60e11b81526001600160a01b0392831660048201819052306024830152939192620100009092049091169063dd62ed3e90604401602060405180830381865afa158015612166573d6000803e3d6000fd5b505050506040513d601f19601f8201168201806040525081019061218a9190613275565b10156121be5750506000828152601960205260408120600581019190915560060180546001600160a01b031916905561283b565b60008481526019602052604090206008810183905560028101546001909101546001600160a01b03908116908716811461220a5760405162461bcd60e51b81526004016107509061323e565b6000868152601960205260408120600301548190612232906001600160a01b03166001612d26565b6001600160a01b038086166000908152601a6020526040812054939550919350909116801561232a576001600160a01b0385166000908152601a602052604090206001015460649084906122886127108c613554565b6122929190613576565b61229c9190613576565b6122a69190613554565b6008546040516323b872dd60e01b81529193506201000090046001600160a01b0316906323b872dd906122e1908a90859087906004016134b0565b6020604051808303816000875af1158015612300573d6000803e3d6000fd5b505050506040513d601f19601f8201168201806040525081019061232491906135fb565b50612433565b61233385612e7d565b156124335760405163152a902d60e11b8152600481018790526024810189905260009081906001600160a01b03881690632a55205a906044016040805180830381865afa158015612388573d6000803e3d6000fd5b505050506040513d601f19601f820116820180604052508101906123ac9190613593565b6008546040516323b872dd60e01b81529294509092506201000090046001600160a01b0316906323b872dd906123ea908c90869086906004016134b0565b6020604051808303816000875af1158015612409573d6000803e3d6000fd5b505050506040513d601f19601f8201168201806040525081019061242d91906135fb565b50925090505b60008a815260196020526040902060098101805460ff1916600117905560040180546001600160a01b0389166001600160a01b031990911617905561247c600280546001019055565b6040516323b872dd60e01b81526001600160a01b038c16906323b872dd906124ac9030908b908b906004016134b0565b600060405180830381600087803b1580156124c657600080fd5b505af11580156124da573d6000803e3d6000fd5b5050505060006064856007546127108c6124f49190613554565b6124fe9190613576565b6125089190613576565b6125129190613554565b9050600081612521858c6135c1565b61252b91906135c1565b60008d81526019602090815260408083208151610140810183528154815260018201546001600160a01b0390811694820194909452600282015492810192909252600381015483166060830152600481015483166080830152600581015460a0830152600681015490921660c08201526007820180549495509293909260e08401916125b69061328e565b80601f01602080910402602001604051908101604052809291908181526020018280546125e29061328e565b801561262f5780601f106126045761010080835404028352916020019161262f565b820191906000526020600020905b81548152906001019060200180831161261257829003601f168201915b5050509183525050600882810154602083015260099092015460ff1615156040918201529054606083015191516323b872dd60e01b81529293506201000090046001600160a01b0316916323b872dd91612690918e919087906004016134b0565b6020604051808303816000875af11580156126af573d6000803e3d6000fd5b505050506040513d601f19601f820116820180604052508101906126d391906135fb565b6126dc57600080fd5b6008546005546040516323b872dd60e01b8152620100009092046001600160a01b03908116926323b872dd9261271b928f9291169088906004016134b0565b6020604051808303816000875af115801561273a573d6000803e3d6000fd5b505050506040513d601f19601f8201168201806040525081019061275e91906135fb565b61276757600080fd5b80608001516001600160a01b031681606001516001600160a01b03168e7f895a96f6ac8d73df2b06b1075893880803453f7110c94f09757b5e9864cfee67846020015185604001518660e0015187610100015160016040516127cd9594939291906135d4565b60405180910390a460055460608281015160408051868152602081018890529081018990526001600160a01b03888116948116939216917f7e06111c2f996dd70140b09a1b769e48e2e8fffbd0179a6e24552f65d25b8b16910160405180910390a450505050505050505050505b6109f96001600055565b61284d612ccd565b60085460ff1615156001146128975760405162461bcd60e51b815260206004820152601060248201526f131a5cdd1a5b99c8191a5cd8589b195960821b6044820152606401610750565b600083116128df5760405162461bcd60e51b81526020600482015260156024820152744e6f206974656d20666f722066726565206865726560581b6044820152606401610750565b60408051600481526024810182526020810180516001600160e01b0316638da5cb5b60e01b17905290516000916001600160a01b03881691612921919061361d565b6000604051808303816000865af19150503d806000811461295e576040519150601f19603f3d011682016040523d82523d6000602084013e612963565b606091505b5050905080156129ff57856001600160a01b0316638da5cb5b6040518163ffffffff1660e01b8152600401602060405180830381865afa1580156129ab573d6000803e3d6000fd5b505050506040513d601f19601f820116820180604052508101906129cf9190613639565b6001600160a01b03878116600090815260066020526040902080546001600160a01b031916929091169190911790555b612a0d600180546001019055565b6000612a1860015490565b9050604051806101400160405280828152602001886001600160a01b03168152602001878152602001336001600160a01b0316815260200160006001600160a01b031681526020016000815260200160006001600160a01b0316815260200185858080601f016020809104026020016040519081016040528093929190818152602001838380828437600092018290525093855250505060208083018990526040928301829052848252601981529082902083518155908301516001820180546001600160a01b03199081166001600160a01b0393841617909155928401516002830155606084015160038301805485169183169190911790556080840151600483018054851691831691909117905560a0840151600583015560c084015160068301805490941691161790915560e08201516007820190612b5a90826136ba565b506101008201516008820155610120909101516009909101805460ff19169115159190911790556040516323b872dd60e01b81526001600160a01b038816906323b872dd90612bb190339030908b906004016134b0565b600060405180830381600087803b158015612bcb57600080fd5b505af1158015612bdf573d6000803e3d6000fd5b50505050336001600160a01b0316876001600160a01b0316827f058ba5dd04a75d8581491c06ed3308197306a78713282c4d1bdeef5bde9ba83389600089898c6000604051612c339695949392919061377a565b60405180910390a45050612c476001600055565b5050505050565b6103e8831115612c705760405162461bcd60e51b815260040161075090613416565b6001600160a01b03818116600090815260066020526040902054163314610dbf5760405162461bcd60e51b81526020600482015260116024820152702737ba103b30b634b21031b932b0ba37b960791b6044820152606401610750565b600260005403612d1f5760405162461bcd60e51b815260206004820152601f60248201527f5265656e7472616e637947756172643a207265656e7472616e742063616c6c006044820152606401610750565b6002600055565b6008546000908190610100900460ff168015612d4c57506009546001600160a01b031615155b15612e6f576009546040516370a0823160e01b81526001600160a01b03868116600483015260009216906370a0823190602401602060405180830381865afa158015612d9c573d6000803e3d6000fd5b505050506040513d601f19601f82011682018060405250810190612dc09190613275565b90508315612e22576014548110612deb57601754600a60025b60050201600401549250925050612e76565b600f548110612e0057601254600a6001612dd9565b600a548110612e1557600d54600a6000612dd9565b6064809250925050612e76565b6014548110612e4557601554600a60025b60050201600201549250925050612e76565b600f548110612e5a57601054600a6001612e33565b600a548110612e1557600b54600a6000612e33565b5060649050805b9250929050565b6040516301ffc9a760e01b815263152a902d60e11b600482015260009081906001600160a01b038416906301ffc9a790602401602060405180830381865afa158015612ecd573d6000803e3d6000fd5b505050506040513d601f19601f82011682018060405250810190612ef191906135fb565b9392505050565b6001600160a01b038116811461201857600080fd5b600080600060608486031215612f2257600080fd5b8335612f2d81612ef8565b95602085013595506040909401359392505050565b600060208284031215612f5457600080fd5b5035919050565b600060208284031215612f6d57600080fd5b8135612ef181612ef8565b60005b83811015612f93578181015183820152602001612f7b565b50506000910152565b60008151808452612fb4816020860160208601612f78565b601f01601f19169290920160200192915050565b602081528151602082015260006020830151612fef60408401826001600160a01b03169052565b5060408301516060830152606083015161301460808401826001600160a01b03169052565b5060808301516001600160a01b03811660a08401525060a083015160c083015260c083015161304e60e08401826001600160a01b03169052565b5060e0830151610140610100818186015261306d610160860184612f9c565b90860151610120868101919091529095015115159301929092525090919050565b6000806000606084860312156130a357600080fd5b8335925060208401356130b581612ef8565b915060408401356130c581612ef8565b809150509250925092565b600080600080608085870312156130e657600080fd5b84356130f181612ef8565b966020860135965060408601359560600135945092505050565b6000806040838503121561311e57600080fd5b823561312981612ef8565b946020939093013593505050565b60008060008060008060c0878903121561315057600080fd5b505084359660208601359650604086013595606081013595506080810135945060a0013592509050565b60008060008060006080868803121561319257600080fd5b853561319d81612ef8565b94506020860135935060408601359250606086013567ffffffffffffffff808211156131c857600080fd5b818801915088601f8301126131dc57600080fd5b8135818111156131eb57600080fd5b8960208285010111156131fd57600080fd5b9699959850939650602001949392505050565b602080825260149082015273125d195b481a5cc8185b1c9958591e481cdbdb1960621b604082015260600190565b60208082526017908201527f4e6f7420636f7272656374204e46542061646472657373000000000000000000604082015260600190565b60006020828403121561328757600080fd5b5051919050565b600181811c908216806132a257607f821691505b6020821081036132c257634e487b7160e01b600052602260045260246000fd5b50919050565b600081546132d58161328e565b8085526020600183811680156132f2576001811461330c5761333a565b60ff1985168884015283151560051b88018301955061333a565b866000528260002060005b858110156133325781548a8201860152908301908401613317565b890184019650505b505050505092915050565b60018060a01b038616815284602082015283604082015260a06060820152600061337260a08301856132c8565b90508260808301529695505050505050565b6020808252602c908201527f6f6e6c79207468652073757065722061646d696e2063616e20706572666f726d60408201526b103a3434b99030b1ba34b7b760a11b606082015260800190565b60208082526026908201527f6f6e6c79207468652061646d696e2063616e20706572666f726d20746869732060408201526530b1ba34b7b760d11b606082015260800190565b60208082526021908201527f53616c6573204665652063616e7420626520686967686572207468616e2031306040820152602560f81b606082015260800190565b634e487b7160e01b600052603260045260246000fd5b8581526001600160a01b038516602082015260a060408201819052600090613497908301866132c8565b6060830194909452509015156080909101529392505050565b6001600160a01b039384168152919092166020820152604081019190915260600190565b60018060a01b038616815284602082015260a06040820152600061349760a08301866132c8565b60208082526023908201527f596f75206861766520746f206265207468652073656c6c657220746f2063616e60408201526218d95b60ea1b606082015260800190565b634e487b7160e01b600052601160045260246000fd5b60008261357157634e487b7160e01b600052601260045260246000fd5b500490565b808202811582820484141761358d5761358d61353e565b92915050565b600080604083850312156135a657600080fd5b82516135b181612ef8565b6020939093015192949293505050565b8181038181111561358d5761358d61353e565b60018060a01b038616815284602082015260a06040820152600061349760a0830186612f9c565b60006020828403121561360d57600080fd5b81518015158114612ef157600080fd5b6000825161362f818460208701612f78565b9190910192915050565b60006020828403121561364b57600080fd5b8151612ef181612ef8565b634e487b7160e01b600052604160045260246000fd5b601f8211156109f957600081815260208120601f850160051c810160208610156136935750805b601f850160051c820191505b818110156136b25782815560010161369f565b505050505050565b815167ffffffffffffffff8111156136d4576136d4613656565b6136e8816136e2845461328e565b8461366c565b602080601f83116001811461371d57600084156137055750858301515b600019600386901b1c1916600185901b1785556136b2565b600085815260208120601f198616915b8281101561374c5788860151825594840194600190910190840161372d565b508582101561376a5787850151600019600388901b60f8161c191681555b5050505050600190811b01905550565b8681526001600160a01b038616602082015260a0604082018190528101849052838560c0830137600060c08583010152600060c0601f19601f8701168301019050836060830152821515608083015297965050505050505056fea2646970667358221220207bd6d43edce69239a4321f70c7394be394eda8e5dd6ced0db5c4bbb28de61364736f6c63430008120033",
  "linkReferences": {},
  "deployedLinkReferences": {}
}